{
    "contractName": "Faucet",
    "abi": [
        {
            "inputs": [
                {
                    "internalType": "uint256",
                    "name": "withdraw_amount",
                    "type": "uint256"
                }
            ],
            "name": "withdraw",
            "outputs": [],
            "stateMutability": "nonpayable",
            "type": "function"
        },
        {
            "stateMutability": "payable",
            "type": "receive"
        }
    ],
    "bytecode": "608060405234801561001057600080fd5b5060cc8061001f6000396000f3fe608060405260043610601f5760003560e01c80632e1a7d4d14602a576025565b36602557005b600080fd5b348015603557600080fd5b50605060048036036020811015604a57600080fd5b50356052565b005b67016345785d8a0000811115606657600080fd5b604051339082156108fc029083906000818181858888f193505050501580156092573d6000803e3d6000fd5b505056fea26469706673582212207b2b36ecbe93d39fb38edb193fbafa7ce87f79f58657780879d1576960365c6864736f6c63430006040033",
    "sourcePath": "c:/Lorenzo/GitHub/masteringEthereum/masteringEthereum/Faucet2.sol",
    "compiler": {
        "name": "solc",
        "version": "0.6.4+commit.1dca32f3"
    },
    "functionHashes": {
        "withdraw(uint256)": "2e1a7d4d"
    },
    "gasEstimates": {
        "creation": {
            "codeDepositCost": "40800",
            "executionCost": "93",
            "totalCost": "40893"
        },
        "external": {
            "withdraw(uint256)": "infinite"
        }
    }
}