{
  "contractName": "Faucet",
  "abi": [
    {
      "anonymous": false,
      "inputs": [
        {
          "indexed": true,
          "internalType": "address",
          "name": "from",
          "type": "address"
        },
        {
          "indexed": false,
          "internalType": "uint256",
          "name": "amount",
          "type": "uint256"
        }
      ],
      "name": "Deposit",
      "type": "event"
    },
    {
      "anonymous": false,
      "inputs": [
        {
          "indexed": true,
          "internalType": "address",
          "name": "to",
          "type": "address"
        },
        {
          "indexed": false,
          "internalType": "uint256",
          "name": "amount",
          "type": "uint256"
        }
      ],
      "name": "Withdrawal",
      "type": "event"
    },
    {
      "inputs": [],
      "name": "destroy",
      "outputs": [],
      "stateMutability": "nonpayable",
      "type": "function"
    },
    {
      "stateMutability": "payable",
      "type": "receive",
      "payable": true
    },
    {
      "inputs": [
        {
          "internalType": "uint256",
          "name": "withdraw_amount",
          "type": "uint256"
        }
      ],
      "name": "withdraw",
      "outputs": [],
      "stateMutability": "nonpayable",
      "type": "function"
    }
  ],
  "bytecode": "0x6080604052600080546001600160a01b0319163317905561025b806100256000396000f3fe60806040526004361061002d5760003560e01c80632e1a7d4d1461006f57806383197ef01461009b5761006a565b3661006a5760408051348152905133917fe1fffcc4923d04b559f4d29a8bfc6cda04eb5b0d3c460751c2402c5c5cc9109c919081900360200190a2005b600080fd5b34801561007b57600080fd5b506100996004803603602081101561009257600080fd5b50356100b0565b005b3480156100a757600080fd5b5061009961016b565b67016345785d8a00008111156100c557600080fd5b804710156101045760405162461bcd60e51b81526004018080602001828103825260358152602001806101f16035913960400191505060405180910390fd5b604051339082156108fc029083906000818181858888f19350505050158015610131573d6000803e3d6000fd5b5060408051828152905133917f7fcf532c15f0a6db0bd6d0e038bea71d30d808c7d98cb3bf7268a95bf5081b65919081900360200190a250565b6000546001600160a01b031633146101b45760405162461bcd60e51b815260040180806020018281038252602e8152602001806101c3602e913960400191505060405180910390fd5b6000546001600160a01b0316fffe4f6e6c792074686520636f6e7472616374206f776e65722063616e2063616c6c20746869732066756e6374696f6e496e73756666696369656e742062616c616e636520696e2066617563657420666f72207769746864726177616c2072657175657374a2646970667358221220f308ae6f7a60c0b89b0acaaf4fb50d7a02ab46115fa3992ceacbd8d53a94dc3a64736f6c63430006040033",
  "source": "// SPDX-License-Identifier: CC-BY-SA-4.0\r\n\r\n// Version of Solidity compiler this program was written for\r\n//https://github.com/ethereumbook/ethereumbook/blob/develop/07smart-contracts-solidity.asciidoc#data-types\r\n\r\npragma solidity ^0.6.4;\r\n\r\ncontract owned {\r\n    address payable owner;\r\n\r\n    //Contract constructor: set owner\r\n    constructor() public {\r\n        owner = msg.sender;\r\n    }\r\n\r\n    //Access control modifier\r\n    modifier onlyOwner {\r\n        require(msg.sender == owner, \"Only the contract owner can call this function\");\r\n        _;\r\n    }\r\n}\r\n\r\ncontract mortal is owned {\r\n    // Contract destructor\r\n    function destroy() public onlyOwner {\r\n        selfdestruct(owner);\r\n    }\r\n}\r\n\r\n// Our first contract is a faucet!\r\ncontract Faucet is mortal {\r\n    //add events\r\n    event Withdrawal(address indexed to, uint amount);\r\n    event Deposit(address indexed from, uint amount);\r\n    \r\n    // Give out ether to anyone who asks\r\n    function withdraw(uint withdraw_amount) public {\r\n        // Limit withdrawal amount\r\n        require(withdraw_amount <= 0.1 ether);\r\n        \r\n        require(address(this).balance >= withdraw_amount, \"Insufficient balance in faucet for withdrawal request\");\r\n\r\n        // Send the amount to the address that requested it\r\n        msg.sender.transfer(withdraw_amount);\r\n\r\n        emit Withdrawal(msg.sender, withdraw_amount);\r\n    }\r\n\r\n    // Accept any incoming amount\r\n    receive() external payable{\r\n        emit Deposit(msg.sender, msg.value);\r\n    }\r\n}",
  "sourcePath": "C:\\Lorenzo\\GitHub\\masteringEthereum\\masteringEthereum\\Faucet\\contracts\\Faucet.sol",
  "compiler": {
    "name": "solc",
    "version": "0.6.4+commit.1dca32f3.Emscripten.clang"
  },
  "schemaVersion": "3.4.13",
  "updatedAt": "2024-03-22T15:40:03.905Z",
  "networkType": "ethereum",
  "devdoc": {
    "methods": {}
  },
  "userdoc": {
    "methods": {}
  }
}